:101C000002C0302E3031112410E0A0E6B0E0EAED41
:101C1000FFE102C005900D92AE36B107D9F720E082
:101C2000AEE6B0E001C01D92A63DB207E1F75AC092
:101C3000382FFC018FEF9FEF2E2F231B261708F064
:101C400008952191822728E0AC014170552796958F
:101C50008795452B21F041E0842740EA94272150C5
:101C600099F7EACFCF93DF9390E896BD24E026BDA5
:101C7000C39AC29ABA9AC29808B2E3E0C0E2DC2FD3
:101C8000DA95F1F780FB02F8E695879508BAB9F77F
:101C900096BD16BCDF91CF9108951F93CF93DF932C
:101CA000EC01162F6EEF610FC3DF9E01210F311D76
:101CB000F9013297808321503109F90190831C0F7B
:101CC000FE0121968081CEDF1C13FACFDF91CF91E8
:101CD0001F910895FC01818180588183628365E0B2
:101CE000CF01DBCFF8940FB6F894A89581B5886141
:101CF00081BD11BC0FBEC598BD98B59918C0E0E074
:101D0000F0E0D591DF3F99F4D491DD3C81F4EF917F
:101D1000E43551F4EF91EF3439F4EF91EF3421F4DD
:101D2000EF91E23409F403C0EFE0F0E00994CFE56D
:101D3000D2E0DEBFCDBF00E610E07DE6E72E70E02A
:101D4000F72EF80181918F018DDFE016F106C9F7BA
:101D500080E090E03AD1782EBB9AD0E085EDE82E75
:101D600080E0F82E90E8392E24E0622E3DEC232E00
:101D700042E0442E4CE1542E54E0A52E5CE1B52EF9
:101D800065E0862E6CE1962EEEEAF0E0818181938B
:101D9000EE16FF06D9F736BC66BCC398C098B89853
:101DA0002FE280E8B099FECF2150F1F721E2B099FF
:101DB00008948795C8F72A95F1F736BC16BC80932E
:101DC000D500DF5F9091AE00971511F0911180C0A2
:101DD0009091AF00903109F07BC09091B3009031A9
:101DE00009F076C0D83208F473C00091D400182FDF
:101DF00066E28EEA90E01CDF8017910709F068C068
:101E00008091B0009091B100982789279827813E52
:101E1000FBE19F0708F088C09C012F713327232B1B
:101E200009F082C0009729F42FEF2093B40020928C
:101E3000B50050E0BC01607CAEE6B0E030E020E0F0
:101E4000FB01E20FF31FE491ED932F5F3F4F20342E
:101E50003105B1F7282F261B30E0E52FF0E0EC54D8
:101E6000FF4F2034310550F44191D901A259BF4FA1
:101E70004C935F5F2F5F3F4F503299F7E62FF72F5C
:101E8000CEE6D0E014D003E007BFE89540E40FD0E1
:101E90000990199001E007BFE89532964250B9F7D2
:101EA00006D0E62FF72F05E007BFE89506C0109192
:101EB000370011701130D9F308951124850F911D49
:101EC000503208F4B7CF68E08EEA90E0E6DED0E06A
:101ED0008091CE00871511F0811156CF1091CF005F
:101EE000133019F0163009F04FCFD83008F44CCF2A
:101EF000C090D400D090D50066E08EEC90E098DEE3
:101F00008C159D0509F040CF8091D0009091D100B3
:101F1000982789279827D091D300133051F0163095
:101F200009F435C0D0E030CF62E08EEA90E0D2DE36
:101F3000CECF009799F4D13029F063E08EEC90E099
:101F4000C9DEF0CF82E08093D0001092D100D09310
:101F5000D20067E08EEC90E0A0DEE4CF019711F7AD
:101F6000D23059F76092D000F20184918093D10071
:101F7000E3E0FCE184918093D200F50184918093A9
:101F8000D300F40184918093D40069E0E3CF892BDE
:101F900009F0C8CF8091D200D82B79F60EEC10E072
:101FA000F8010F5F1F4F80815DDEF0E0063D1F07E7
:101FB000B9F728E188E20FB6F894A89521BD0FBEC5
:101FC00081BDEFE0F0E00994DFCEE199FECF9FBB49
:0A1FD0008EBBE09A99278DB30895A7
:0E1FDA000A0A424F4F544C4F414445520A00F0
:0400000300001C00DD
:00000001FF
