:1000000010C01FC072C21DC01CC0F0C11AC019C0F0
:1000100018C017C016C015C014C013C0F1C1302ECF
:10002000303311241FBECFE5D2E0DEBFCDBF20E0CC
:10003000A0E6B0E001C01D92AE3AB207E1F777D278
:10004000CDC5DECFFB0120813181A9014827CA013E
:1000500028E0AC014170552796958795452B21F0F6
:1000600051E0852750EA9527215099F791838083A5
:100070000895982F96959575880F8A7A982B892FD1
:10008000869586958373990F990F9C7C892B829511
:100090000895CF92DF92EF92FF920F931F93CF9329
:1000A000DF938C01FF24F39492E0D92E24E5C22E35
:1000B000EE24EA94D62FD80FF80180810F5F1F4FEE
:1000C000C091A300CF5FCF719091A200C917E1F357
:1000D000D0DFEC2FF0E0EE57FF4F8083C093A300FA
:1000E0008091A50080FD16C08091A50082FDFCCF07
:1000F000F89412BEFCBCF3BED8BE89B7826089BF3B
:10010000CDB8EFB8EEB8B99A8091A5008160809320
:10011000A5007894D013D0CFDF91CF911F910F918C
:10012000FF90EF90DF90CF900895BF92CF92DF9233
:10013000EF92FF920F931F93CF93DF9300D0CDB731
:10014000DEB78C01F62E8EEFE82EE60E8FEF9FEFD6
:100150009A838983B02E6801BE016F5F7F4FF601DD
:1001600081916F016FDF8C2D8B198E15A8F339816A
:100170002A81C8018F0D911DFC01329730830197B0
:10018000FC0120836F2DC80184DF0F900F90DF9159
:10019000CF911F910F91FF90EF90DF90CF90BF9084
:1001A0000895BF92CF92DF92EF92FF920F931F9329
:1001B000CF93DF9300D000D000D0CDB7DEB786B1AB
:1001C000877D86B9379A8FE887B98FE39FE10197DA
:1001D000F1F700C0000094E0F92E00E010E01E826C
:1001E0001D82369A3699FECF84B195B19C0150E0BC
:1001F00040E029833A834B835C83CA01B901F7D37A
:100200009B01AC0109831A838E818B839D819C8322
:1002100069817A818B819C81F0D28B018E839D8351
:10022000FA94F110DECF20E030E040E85EE369832D
:100230001A838B839C8369817A818B819C8163D4AF
:100240007B018C013798379A8CE187B9AFE3BFE126
:100250001197F1F700C0000084E0B82EC12CD12C1A
:100260001E821D82369A3699FECF84B195B19C01CB
:1002700050E040E029833A834B835C83CA01B90193
:10028000B6D39B01AC01C982DA828E818B839D81BA
:100290009C8369817A818B819C81AFD26B018E8333
:1002A0009D83BA94B110DECF20E030E040E85EE3F9
:1002B0006983DA828B839C8369817A818B819C81BB
:1002C00022D49B01AC016DEC7CEC8CE894E4F9D277
:1002D000B62EC72ED82E9E83379820E030E040E21D
:1002E00051E469837A838B839C8369817A818B81D2
:1002F0009C8109D469837A838B839C8369817A8109
:100300008B819C8146D3262F6E3108F06CC0613101
:1003100008F421E121512D834B2D5C2D6D2D7E8123
:100320004093AA005093AB006093AC007093AD0073
:1003300023E333E748E853E4E982FA820B831C8322
:1003400069817A818B819C8157D22AE939E949E810
:100350005FE369837A838B839C8369817A818B8154
:100360009C81AFD2F62E072F182F9E833D81232F1D
:1003700030E050E040E029833A834B835C83CA013C
:10038000B90133D320E030E040E551E469837A835A
:100390008B839C8369817A818B819C8192D29B0122
:1003A000AC01F9820A831B838E818C8369817A81F7
:1003B0008B819C8122D26093A6007093A7008093CA
:1003C000A8009093A90026960FB6F894DEBF0FBE42
:1003D000CDBFDF91CF911F910F91FF90EF90DF90F4
:1003E000CF90BF900895ADE0AD8396CF8F938FB738
:1003F0008F9382B78E5C82BF8F918FBF8F9118953C
:100400001F921FB61F9211248F939F93EF93FF9318
:100410008091A50080FF4FC0C39A8091A50081FF05
:1004200016C08091A5008D7F8093A5008BEF8EB9BB
:100430008091A400880F880F880F87608FB9FF9183
:10044000EF919F918F911F901FBE1F9018959091D3
:10045000A3008091A2009817C9F08091A500826046
:100460008093A500E091A200EF5FEF71E093A200FE
:10047000F0E0EE57FF4F80818093A4008BEF8EB9A0
:100480008091A400869586958068D8CFC398809186
:10049000A5008E7F8093A50013BE88B3836088BBC0
:1004A00087B38C7F87BB1DB880E28ABF8BB7806221
:1004B0008BBFA89AC4CFC3988091A5008B7F8093EF
:1004C000A500E0918100EF5FEF71809180008E13B5
:1004D00004C08091A5008860DDCFE09381008FB1DA
:1004E000F0E0E05AFF4F8083D7CF8F938FB78F9381
:1004F000B09919C081E182BF82B7885682BF81E07E
:100500008CBD83BF82E088BF89B7826089BF84E5E4
:100510008DB987EF8EB98BB78F7D8BBF8091A5008A
:1005200084608093A5008F918FBF8F911895CDB770
:10053000DEB76C970FB6F894DEBF0FBECDBFF89450
:1005400080E090E043D1182F2CDE109280001092B2
:1005500081001092A2001092A300BB9AC39888B3A6
:10056000836088BB87B38C7F87BB1DB880E28ABF5E
:100570008BB780628BBFA89A78946E0128E1C20E77
:10058000D11CAA24AA94BA2CA8959091810080919C
:1005900080009817C9F38FE19EE40197F1F700C03E
:1005A000000083E0282E94E0592E909181008091E4
:1005B0008000981749F33E0191E1690E711CF30127
:1005C000362C472C81818193EC15FD05D9F790914C
:1005D0008100809180009817D1F3E0918000EF5F57
:1005E000EF71E0938000F0E0E05AFF4F808141DD41
:1005F000888F99899113D9CF9A892DEF290F2230AD
:1006000010F0963091F6EF88F82EBA82A982430155
:10061000A6E08A0E911CBE016F5F7F4FF3018191AE
:100620003F0110DD86149704B1F789819A81E8169D
:10063000F90609F0BACF8B899C89982789279827D2
:100640000E893D8919832A89243009F46AC026302D
:1006500009F474C0233009F0A8CF2A83009759F415
:10066000013009F0A2CFF2E0FB831C821D8267E01B
:10067000CE0101968AC081309105C1F0823091058A
:1006800059F18330910509F433C0049709F08DCFF7
:10069000023009F08ACF5B8284DD8091A6009091C0
:1006A000A700A091A800B091A9002FC0023009F0C6
:1006B0007CCF5B82EEE1F0E084918C83EFE1F0E0AF
:1006C00084918D83E0E2F0E084918E83E1E2F0E0BA
:1006D00084918F8369E0CCCF013009F066CFF2E0DE
:1006E000FB8380E090E072D0182F1C828D83BFCFF7
:1006F000023009F05ACF5B8254DD8091AA009091BC
:10070000AB00A091AC00B091AD00898F9A8FAB8FF8
:10071000BC8FBC01CD0153D06C837D838E839F83BE
:10072000D9CF2A83892B09F040CF013009F03DCF82
:1007300092E09B831C82A0E2AD8399CF2A8300972D
:1007400031F531111CC00130D1F468E0832D942DB6
:10075000A0DCBFEFE0E7F2E0B150E040F040E1F7AD
:1007600000C00000F894E2E4EF93EFE4EF93EFE4CD
:10077000EF93E4E5EF93E0E0FEE0099416CF26E87E
:100780002A8B2B8A65E0832D942DCFDC0ECF019729
:1007900009F00BCF31110EC08FEF800F8E3F50F458
:1007A000602F80E090E01AD068E0832D942D71DCFA
:1007B000102FFBCE86E88A832B8265E059CF69270C
:1007C000962769277827872778270895E199FECF0C
:1007D0009FBB8EBBE09A99278DB30895262FE19990
:1007E000FECF1CBA9FBB8EBB2DBB0FB6F894E29A0E
:1007F000E19A0FBE019608955058BB27AA270ED044
:1008000048C139D130F03ED120F031F49F3F11F48E
:100810001EF42EC10EF4E095E7FB24C1E92F4AD166
:1008200080F3BA17620773078407950718F071F40D
:100830009EF562C10EF4E0950B2EBA2FA02D0B0190
:10084000B90190010C01CA01A0011124FF27591B15
:1008500099F0593F50F4503E68F11A16F040A22F1B
:10086000232F342F4427585FF3CF4695379527958C
:10087000A795F0405395C9F77EF41F16BA0B620B8B
:10088000730B840BBAF09150A1F0FF0FBB1F661FD2
:10089000771F881FC2F70EC0BA0F621F731F841F15
:1008A00048F4879577956795B795F7959E3F08F03B
:1008B000B3CF9395880F08F09927EE0F97958795FA
:1008C00008950CD0E6C0DED040F0D5D030F021F451
:1008D0005F3F19F0C7C0511110C1CAC0EBD098F3E7
:1008E0009923C9F35523B1F3951B550BBB27AA27B1
:1008F00062177307840738F09F5F5F4F220F331F23
:10090000441FAA1FA9F333D00E2E3AF0E0E830D0EE
:1009100091505040E695001CCAF729D0FE2F27D0F1
:10092000660F771F881FBB1F261737074807AB07BF
:10093000B0E809F0BB0B802DBF01FF2793585F4F34
:100940002AF09E3F510568F08DC0D7C05F3FECF3A1
:10095000983EDCF3869577956795B795F7959F5FF9
:10096000C9F7880F911D9695879597F90895E1E04D
:10097000660F771F881FBB1F621773078407BA07AC
:1009800020F0621B730B840BBA0BEE1F88F7E09507
:10099000089598D088F09F5790F0B92F9927B751B4
:1009A000A0F0D1F0660F771F881F991F1AF0BA9533
:1009B000C9F712C0B13081F09FD0B1E008959CC05A
:1009C000672F782F8827B85F39F0B93FCCF3869529
:1009D00077956795B395D9F73EF490958095709586
:1009E00061957F4F8F4F9F4F0895E89409C097FB03
:1009F0003EF490958095709561957F4F8F4F9F4FF6
:100A00009923A9F0F92F96E9BB279395F695879539
:100A100077956795B795F111F8CFFAF4BB0F11F4FC
:100A200060FF1BC06F5F7F4F8F4F9F4F16C08823A3
:100A300011F096E911C0772321F09EE8872F762FD9
:100A400005C0662371F096E8862F70E060E02AF01A
:100A50009A95660F771F881FDAF7880F9695879506
:100A600097F9089597F99F6780E870E060E008952E
:100A70009FEF80EC089500240A94161617061806B6
:100A80000906089500240A94121613061406050692
:100A90000895092E0394000C11F4882352F0BB0F23
:100AA00040F4BF2B11F460FF04C06F5F7F4F8F4F86
:100AB0009F4F089557FD9058440F551F59F05F3FC1
:100AC00071F04795880F97FB991F61F09F3F79F070
:100AD00087950895121613061406551FF2CF4695F2
:100AE000F1DF08C0161617061806991FF1CF869574
:100AF0007105610508940895E894BB276627772758
:100B0000CB0197F908950AD0C4CFB5DF28F0BADF3A
:100B100018F0952309F0A6CFABCFEFCFCBDFA8F32A
:100B20009923D9F35523C9F3950F50E0551FAA27F0
:100B3000EE27FF27BB2700240894679520F4E20FD7
:100B4000F31FB41F0A1E220F331F441FAA1F6695EE
:100B5000A9F7779530F4F30FB41F0A1E121E08F49C
:100B60006395330F441FAA1F221F769599F7879527
:100B700020F4B40F0A1E121E631F440FAA1F221F67
:100B8000331F8695A9F7862F712D602D11249F574D
:100B900050408AF0E1F088234AF0EE0FFF1FBB1FA0
:100BA000661F771F881F91505040A9F79E3F51053F
:100BB00070F058CFA2CF5F3FECF3983EDCF3869500
:100BC00077956795B795F795E7959F5FC1F7FE2BEA
:100BD000880F911D9695879597F90895F894FFCF02
:00000001FF
